:020000040800F2
:10000000EC390120D90F0008351000083510000820
:1000100035100008351000083510000800000000F9
:100020000000000000000000000000003510000883
:1000300035100008000000003510000835100008D9
:10004000351000083510000835100008351000087C
:10005000351000083510000835100008351000086C
:10006000351000083510000835100008351000085C
:10007000351000083510000835100008351000084C
:10008000351000083510000835100008351000083C
:10009000351000083510000835100008351000082C
:1000A000351000083510000835100008351000081C
:1000B000C12400083510000835100008351000086C
:1000C00035100008351000083510000835100008FC
:1000D0003510000835100008A10E00083510000882
:1000E00035100008351000083510000835100008DC
:1000F00035100008351000083510000835100008CC
:1001000035100008351000083510000835100008BB
:1001100035100008351000083510000835100008AB
:10012000351000083510000835100008351000089B
:10013000351000083510000835100008351000088B
:10014000351000083510000835100008351000087B
:100150007925000835100008351000083510000812
:10016000351000083510000835100008351000085B
:10017000351000083510000835100008351000084B
:10018000351000083510000880B584B000AF3B463C
:10019000184600F069FF3A68454B1A60444B1B68EB
:1001A000184602F0D7FD02460B46104619464FF09E
:1001B0000002404B02F044FE02460B461046194630
:1001C0004FF000023C4B02F065FF02460B46104622
:1001D00019464FF000024FF0804302F05BFF0246E9
:1001E0000B461046194603F03DF80246334B1A60A1
:1001F0002F4B1B68184602F0ADFD02460B46104619
:1002000019464FF000022B4B02F01AFE02460B4635
:100210001046194622A3D3E9002302F03BFF024611
:100220000B46104619464FF000024FF0804302F093
:1002300031FF02460B461046194603F013F80246FA
:100240001F4B1A601A4B1B68184602F083FD0246CA
:100250000B46104619464FF00002164B02F0F0FD17
:1002600002460B46104619460FA3D3E9002302F0BD
:1002700011FF02460B46104619464FF000024FF0A0
:10028000804302F007FF02460B461046194602F073
:10029000E9FF02460B4B1A601037BD4680BD00BF18
:1002A000000000000094C14000000000882A614165
:1002B000780400200000F43F000022407C0400206D
:1002C000840400208004002080B485B000AF7860F2
:1002D0000DE00023FB6002E0FB680133FB60FA687D
:1002E000074B1B689A42F7D37B68013B7B607B68B6
:1002F000002BEED11437BD465DF8047B704700BF7C
:100300008404002080B483B000AF13460246FA7123
:100310000A46BA717B71FB79002B02D0012B0AD0FF
:1003200013E0B9797A790B4B49000A4453F822203B
:10033000094B1A6009E0B9797A79084B49000A44F7
:1003400053F82220044B1A6000BF0C37BD465DF8FD
:10035000047B704700000020843101201800002039
:1003600080B590B000AFB9607A600246FA73BB7393
:10037000404B1B681B69FB623E4B1B68DB68BB6222
:10038000FA7B3C4B1B681B79D31A7B627B6ADB00D0
:10039000BA6A13445B683B627B6ADB00BA6A134447
:1003A0001B68FB61FB69002B00DA0733DB10FB6382
:1003B000FA69314B1340002B03DA013B63F007036A
:1003C0000133002B02DDFB6B0133FB63294B1B6800
:1003D0001B68BB610023BB6343E000237B6339E000
:1003E000BB6BFA6B02FB03F23B6A1A447B6B134450
:1003F000FA6A13441B78FB7500233B6324E0FA7D03
:100400003B6B42FA03F303F00103002B19D0BB68E6
:100410009AB23B6B9BB2D31A9AB27B6B9BB2DB0056
:100420009BB213449BB2083399B27B689AB2BB6B00
:100430009BB213449AB2BB7B084611461A4601F0A0
:10044000EDFE3B6B01333B633B6B072BD7DD7B6BD7
:1004500001337B637A6BFB6B9A42C1DBBB6B01336D
:10046000BB63BA6BBB699A42B7DBFB69184640377E
:10047000BD4680BD843101200700008080B588B072
:1004800000AFF860B9607A60FB70FB681B78FB779F
:100490000023BB6100237B6121E0FB7F202B0FD079
:1004A000BA687B691A44F97FFB78084611467A6876
:1004B000FFF756FF034601337A6913447B6106E078
:1004C0000A4B1B689B685B007A6913447B61BB69BC
:1004D0000133BB61BB69FA6813441B78FB77FB7F70
:1004E000002BDAD12037BD4680BD00BF843101200A
:1004F00080B586B002AFF860B9607A603B60BB69D6
:100500000093F86839687A683B6800F03BF9BB698A
:100510000093F868B9687A68BB6800F033F9BB6982
:100520000093F8683968FA68BB6800F02BF9BB697A
:100530000093786839687A68BB6800F023F910374F
:10054000BD4680BD80B58CB000AFF860B9607A6000
:100550003B607B687A6802FB03F33B623B683A6866
:1005600002FB03F3FB613B6A9B00BB61FB699B00E1
:100570007B610023FB623B68BB62FB6959003A6800
:100580001346DB079B1A5B0001333A6A02FB03F355
:100590000B447B6266E0FB689AB2FB6A9BB2134431
:1005A00099B2BB689AB2BB6A9BB213449AB2BB6B56
:1005B000DBB2084611461A4601F030FEFB689AB2DB
:1005C000FB6A9BB2D31A99B2BB689AB2BB6A9BB260
:1005D00013449AB2BB6BDBB2084611461A4601F0CF
:1005E0001DFEFB689AB2FB6A9BB2134499B2BB68CA
:1005F0009AB2BB6A9BB2D31A9AB2BB6BDBB2084603
:1006000011461A4601F00AFEFB689AB2FB6A9BB2D9
:10061000D31A99B2BB689AB2BB6A9BB2D31A9AB288
:10062000BB6BDBB2084611461A4601F0F7FD7B6A48
:10063000002B0BDBBB6AC3F10103BA6902FB03F3B6
:100640007A6A13447B62BB6A013BBB62FB6A9B0014
:100650000633FA6902FB03F37A6A13447B62FB6A8E
:100660000133FB62FB69FA6A02FB03F23B6AB96A77
:1006700001FB03F39A428EDD7B68FB620023BB62C1
:100680003B6A59007A681346DB079B1A5B0001330B
:10069000FA6902FB03F30B447B6266E0FB689AB2E3
:1006A000FB6A9BB2134499B2BB689AB2BB6A9BB215
:1006B00013449AB2BB6BDBB2084611461A4601F0EE
:1006C000ADFDFB689AB2FB6A9BB2D31A99B2BB68C4
:1006D0009AB2BB6A9BB213449AB2BB6BDBB20846B8
:1006E00011461A4601F09AFDFB689AB2FB6A9BB26A
:1006F000134499B2BB689AB2BB6A9BB2D31A9AB23E
:10070000BB6BDBB2084611461A4601F087FDFB6859
:100710009AB2FB6A9BB2D31A99B2BB689AB2BB6A0F
:100720009BB2D31A9AB2BB6BDBB2084611461A468B
:1007300001F074FD7B6A002B0BDBFB6AC3F1010344
:100740007A6902FB03F37A6A13447B62FB6A013B1A
:10075000FB62BB6A9B0006333A6A02FB03F37A6AC8
:1007600013447B62BB6A0133BB623B6ABA6A02FB19
:1007700003F2FB69F96A01FB03F39A428EDD30371D
:10078000BD4680BD80B590B000AFF860B9607A60BA
:100790003B607A68FB68D31ABB623A68BB68D31ABD
:1007A0007B62BB6A002BB8BF5B423B627B6A002B5B
:1007B000B8BF5B42FB61BB6A002B06DBBB6A002B48
:1007C000D4BF00230123DBB201E04FF0FF33BB6154
:1007D0007B6A002B06DB7B6A002BD4BF002301233E
:1007E000DBB201E04FF0FF337B61FB695B10BB6361
:1007F0003B6A5B107B63FB683B63BB68FB623A6AE6
:10080000FB699A4229DB0023FB6321E07A6BFB69D9
:1008100013447B637A6B3B6A9A4207DB7A6B3B6AD1
:10082000D31A7B63FA6A7B691344FB623A6BBB6938
:1008300013443B633B6B99B2FB6A9AB2BB6CDBB26D
:10084000084611461A4601F0E9FCFB6B0133FB63D5
:10085000FA6B3B6A9A42D9DB28E00023FB6321E074
:10086000BA6B3B6A1344BB63BA6BFB699A4207DB02
:10087000BA6BFB69D31ABB633A6BBB6913443B6326
:10088000FA6A7B691344FB623B6B99B2FB6A9AB2CA
:10089000BB6CDBB2084611461A4601F0BFFCFB6B8D
:1008A0000133FB63FA6BFB699A42D9DB4037BD46E3
:1008B00080BD00BF80B590B000AFF860B9607A60CD
:1008C0003B607A68FB68D31A7B623A68BB68D31ACC
:1008D0003B627B6A002BB8BF5B42FB613B6A002B2B
:1008E000B8BF5B42BB617B6A002B06DB7B6A002BD7
:1008F000D4BF00230123DBB201E04FF0FF337B6163
:100900003B6A002B06DB3B6A002BD4BF002301238C
:10091000DBB201E04FF0FF333B61BB695B10BB63AF
:10092000FB695B107B63FB683B63BB68FB62FA6936
:10093000BB699A4238DB0023FB6330E07A6BBB690A
:1009400013447B637A6BFB699A4207DB7A6BFB6922
:10095000D31A7B63FA6A3B691344FB623A6B7B6987
:1009600013443B630023BB6211E03B6B99B2FB6A0B
:100970009AB2BB6A9BB213449AB2FB6CDBB20846D4
:1009800011461A4601F04AFCBB6A0133BB62BB6CDC
:100990005A1CBB6A9A42E8DCFB6B0133FB63FA6BBF
:1009A000FB699A42CADB37E00023FB6330E0BA6B95
:1009B000FB691344BB63BA6BBB699A4207DBBA6B32
:1009C000BB69D31ABB633A6B7B6913443B63FA6A16
:1009D0003B691344FB620023BB6211E03B6B99B29D
:1009E000FB6A9AB2BB6A9BB213449AB2FB6CDBB24D
:1009F000084611461A4601F011FCBB6A0133BB627E
:100A0000BB6C5A1CBB6A9A42E8DCFB6B0133FB638C
:100A1000FA6BBB699A42CADB4037BD4680BD00BF56
:100A200080B58AB000AF7860396000237B62002314
:100A30003B620023FB610023BB617B681B8A9BB286
:100A40007B627B6A23F440537B623B68DB887A6A73
:100A500013437B627B6A9AB27B681A827B689B89AC
:100A60009BB27B627B6A23F4B05323F00C037B625E
:100A70003B689A883B681B8913439AB23B685B8941
:100A800013439BB27A6A13437B627B6A9AB27B6898
:100A90009A817B689B8A9BB27B627B6A23F440735A
:100AA0007B623B689B897A6A13437B627B6A9AB25A
:100AB0007B689A8207F10803184600F0D5FA7A6835
:100AC000314B9A4203D07A68304B9A4202D17B690B
:100AD0003B6201E03B693B627B689B899BB29BB2B6
:100AE0001BB2002B0CDA3A6A13469B0013449A009F
:100AF0001A443B681B685B00B2FBF3F3FB610BE03D
:100B00003A6A13469B0013449A001A443B681B68D8
:100B10009B00B2FBF3F3FB61FA691D4BA3FB0213CD
:100B20005B091B017B627B6A1B09642202FB03F3E6
:100B3000FA69D31ABB617B689B899BB29BB21BB2DB
:100B4000002B0DDABB69DB0003F13202104BA3FB73
:100B500002135B0903F007037A6A13437B620CE01C
:100B6000BB691B0103F13202094BA3FB02135B09B2
:100B700003F00F037A6A13437B627B6A9AB27B6845
:100B80001A812837BD4680BD001001400014014085
:100B90001F85EB5180B483B000AF78600B46FB70CB
:100BA000FB78002B08D07B689B899BB243F40053F1
:100BB0009AB27B689A8107E07B689B899BB223F499
:100BC00000539AB27B689A810C37BD465DF8047B6E
:100BD000704700BF80B483B000AF78600B467B8065
:100BE0007B88C3F308039AB27B689A800C37BD46B2
:100BF0005DF8047B704700BF80B487B000AF7860B9
:100C000013460A467A807B7000233B610023FB6019
:100C10000023BB6000237B617B687B617B88DBB248
:100C20005B09DBB23B617B8803F01F03FB60FB6861
:100C3000012202FA03F3BB603B69012B03D17B69FC
:100C40000C337B6109E03B69022B03D17B691033D4
:100C50007B6102E07B6914337B617B78002B06D0DB
:100C60007B697A691168BA680A431A6006E07B6991
:100C70007A691168BA68D2430A401A601C37BD46C7
:100C80005DF8047B704700BF80B485B000AF78602A
:100C90000B467B800023FB737B681B889AB27B88A2
:100CA00013409BB2002B02D00123FB7301E0002311
:100CB000FB73FB7B18461437BD465DF8047B704719
:100CC00080B487B000AF78600B467B800023FB6068
:100CD00000237B610023BB600023FB747B88DBB2B5
:100CE0005B09DBB2BB607B8803F01F037B617B6920
:100CF000012202FA03F37B61BB68012B06D17B68FA
:100D00009B899BB27A6913407B610FE0BB68022B21
:100D100006D17B681B8A9BB27A6913407B6105E030
:100D20007B689B8A9BB27A6913407B617B881B0A34
:100D30009BB2FB60FB68012202FA03F3FB607B6855
:100D40001B889BB2FA681340FB607B69002B05D0BF
:100D5000FB68002B02D00123FB7401E00023FB742D
:100D6000FB7C18461C37BD465DF8047B704700BF0E
:100D700080B485B000AF78600B467B800023FB8198
:100D80000023BB817B881B0AFB81FB89012202FABD
:100D900003F3BB81BB89DB439AB27B681A801437AB
:100DA000BD465DF8047B704780B586B000AF4FF458
:100DB0000030012100F020FA0120012100F0FEF9AD
:100DC0000C233B6102233B750023BB750123FB759C
:100DD00002237B7507F110031648194600F07CFDCD
:100DE00014480221072200F005FE124803210722C1
:100DF00000F000FE4FF4E1333B600023BB80002392
:100E0000FB8000233B810023BB810C237B813B467D
:100E100009481946FFF704FE074840F22551012210
:100E2000FFF7EAFE04480121FFF7B4FE1837BD467C
:100E300080BD00BF000002400044004080B582B089
:100E400000AF0346FB7100BF07488021FFF71CFF7E
:100E50000346002BF8D0FB799BB203481946FFF7F5
:100E6000B9FE0837BD4680BD0044004080B584B05F
:100E700000AF78600023FB6009E0FB687A681344E8
:100E80001B781846FFF7DAFFFB680133FB60FB684D
:100E90007A6813441B78002BEFD11037BD4680BD14
:100EA00080B582B000AF274840F22551FFF708FF18
:100EB0000346002B43D0234840F22551FFF758FF4B
:100EC000204B9B889BB2FB70FB78402B05D9FB78AD
:100ED0005A2B02D8FB782033FB70FB780D2B1CD8E3
:100EE00000237B600AE0184A7B6813441B7815488E
:100EF0001946FFF76FFE7B6801337B60134B1B685D
:100F00007A689A42EFDB114B00221A60FB789BB2A1
:100F10000C481946FFF75EFE09E00C4B1B680A4AB5
:100F2000F978D154094B1B685A1C084B1A6000BF52
:100F300004484021FFF7A8FE0346002BF8D00837ED
:100F4000BD4680BD0044004088310120740400206B
:100F500080B582B000AFFF23FB7108482021FFF766
:100F600093FE0346012B03D1044B9B889BB2FB717C
:100F7000FB7918460837BD4680BD00BF00440040DD
:100F800080B582B000AF78603960FFF7E1FF0346BB
:100F90001A467B681A707B681B78FF2B03D07B682E
:100FA0001B780A2B01D100BFEFE73B68002B04D070
:100FB0007B681B781846FFF741FF7B681B780D2B79
:100FC00003D17B6800221A7003E07B6801337B60E9
:100FD000DBE70837BD4680BD80B582B000AF104B5F
:100FE0007B60104B3B6007E03B681A1D3A607A68F3
:100FF000111D796012681A603A680B4B9A42F3D35C
:101000000A480B494FF000028842B8BF40F8042B51
:10101000FFF6FAAF00F012F80837BD4680BD00BFFA
:10102000F8FF010800000020740400207404002070
:10103000EC31012080B400AFFEE700BF80B500AF07
:1010400000F01EFDFFF7B0FE01F084F8FFF79CF8FA
:10105000002001F0BFF806200021002200F0E0FF90
:1010600000F006F9FCE700BF80B489B000AF7860FB
:101070000023BB6100237B610023FB6102233B61F2
:101080000023FB600223BB60484B9B6803F00C030A
:10109000BB61BB69042B07D0082B09D0002B3FD1C3
:1010A0007B68434A1A603FE07B68424A1A603BE033
:1010B0003E4B5B6803F480039B0DFB603B4B5B681E
:1010C00003F03F03BB60FB68002B0DD0394ABB68BF
:1010D000B2FBF3F2354B596847F6C0730B409B09DE
:1010E00003FB02F3FB610CE0314ABB68B2FBF3F295
:1010F0002E4B596847F6C0730B409B0903FB02F364
:10110000FB612A4B5B6803F440331B0C01335B002B
:101110003B61FA693B69B2FBF3F27B681A6003E05A
:101120007B68234A1A6000BF204B9B6803F0F003E2
:10113000BB61BB691B09BB611F4ABB6913441B78B8
:10114000DBB27B617B681A687B69DA407B685A6036
:10115000164B9B6803F4E053BB61BB699B0ABB6100
:10116000154ABB6913441B78DBB27B617B685A6804
:101170007B69DA407B689A600C4B9B6803F46043A0
:10118000BB61BB695B0BBB610B4ABB6913441B783A
:10119000DBB27B617B685A687B69DA407B68DA6026
:1011A0002437BD465DF8047B704700BF003802401D
:1011B0000024F40000127A003000002080B483B0D4
:1011C00000AF78600B46FB70FB78002B06D0094B14
:1011D000084A116B7A680A431A6306E0054B054A10
:1011E000116B7A68D2430A401A630C37BD465DF82A
:1011F000047B70470038024080B483B000AF786051
:101200000B46FB70FB78002B06D0094B084A116C8B
:101210007A680A431A6406E0054B054A116C7A683D
:10122000D2430A401A640C37BD465DF8047B704710
:101230000038024080B483B000AF78600B46FB708A
:10124000FB78002B06D0094B084A516C7A680A4398
:101250005A6406E0054B054A516C7A68D2430A404D
:101260005A640C37BD465DF8047B70470038024075
:101270002DE9F043ADF52F7D04AF07F5FE73184659
:101280000121FFF77DFE07F5FE73C7F898323B1D7D
:10129000184600214FF4FC7202F004F80023C7F84E
:1012A000A4320023C7F8A0320023C7F89C3207F508
:1012B000FE72D7F8A43213441B782C2B20D1391D91
:1012C000D7F89C2213469B019B1A1944D7F8A032E9
:1012D000D7F898221A44D7F8A402D7F8A032C31A34
:1012E000084611461A4602F035F9D7F89C32013308
:1012F000C7F89C32D7F8A4320133C7F8A03227E0F0
:1013000007F5FE72D7F8A43213441B78002B1FD1C7
:10131000391DD7F89C2213469B019B1A1944D7F814
:10132000A032D7F898221A44D7F8A402D7F8A032EE
:10133000C31A084611461A4602F00CF900BF3B1DBD
:101340001846C04901F0F8FF0346002B1AD105E00A
:10135000D7F8A4320133C7F8A432A8E73B1D3F33C6
:10136000184600F009FAC7F89402D7F89432DBB2B5
:10137000184600F02FFFB348FFF778FDB248FFF79B
:1013800075FDB6E13B1D1846B04901F0D5FF034697
:10139000002B41D13B1D03F5BD73184600F0ECF95D
:1013A000C7F890023B1D3F3318460021002202F08F
:1013B0008DF980463B1D7E3318460021002202F045
:1013C00085F906463B1DBD3318460021002202F078
:1013D0007DF905463B1DFC3318460021002202F032
:1013E00075F904463B1D03F23B1318460021002209
:1013F00002F06CF903460093D7F89032019340460F
:1014000031462A462346FFF755FA9048FFF72EFD4E
:101410008D48FFF72BFD6CE13B1D18468C4901F010
:101420008BFF0346002B36D13B1D03F23B131846BE
:1014300000F0A2F9C7F88C023B1D3F33184600218B
:10144000002202F043F906463B1D7E331846002178
:10145000002202F03BF905463B1DBD331846002132
:10146000002202F033F904463B1DFC3318460021EC
:10147000002202F02BF90346D7F88C220092304666
:1014800029462246FFF75EF87148FFF7EFFC6E48E9
:10149000FFF7ECFC2DE13B1D18466E4901F04CFFB7
:1014A0000346002B36D13B1D03F23B13184600F0D8
:1014B00063F9C7F888023B1D3F331846002100221C
:1014C00002F004F906463B1D7E3318460021002237
:1014D00002F0FCF805463B1DBD33184600210022F2
:1014E00002F0F4F804463B1DFC33184600210022AC
:1014F00002F0ECF80346D7F88822009230462946DD
:101500002246FEF7F5FF5348FFF7B0FC4E48FFF7C1
:10151000ADFCEEE03B1D18464F4901F00DFF0346C0
:10152000002B57D13B1D03F2B913184600F024F9E4
:10153000C7F884023B1D3F3318460021002202F009
:10154000C5F803465FFA83F83B1D7E331846002139
:10155000002202F0BBF80346DEB23B1DBD33184645
:101560000021002202F0B2F80346DDB23B1DFC333D
:1015700018460021002202F0A9F80346DCB23B1D08
:1015800003F23B1318460021002202F09FF80346A5
:101590005FFA83F93B1D03F5BD7318460021002255
:1015A00002F094F80346DAB2D7F88432DBB2CDF811
:1015B00000900192029301230393404631462A464C
:1015C000234600F007FD2448FFF750FC1E48FFF7B4
:1015D0004DFC8EE03B1D1846204901F0ADFE034650
:1015E000002B3DD13B1DFC33184600F0C5F8C7F871
:1015F00080023B1D03F23B13184600F087F8C7F842
:101600007C023B1D3F3318460021002202F05EF8A9
:1016100004463B1D7E3318460021002202F056F896
:101620000246D7F88032DBB2391DBD31084621466B
:10163000FEF724FF0948FFF719FC0348FFF716FCE3
:1016400057E000BF08AC010814AC010818AC010851
:1016500020AC010828AC010834AC010840AC0108FA
:101660003B1D1846254901F067FE0346002B23D198
:101670003B1D3F3318460021002202F027F80546A3
:101680003B1D7E3318460021002202F01FF804465D
:101690003B1DBD3318460021002202F017F8034617
:1016A000284621461A4600F0BBFC1448FFF7DEFB33
:1016B0001348FFF7DBFB1CE03B1D1846114901F006
:1016C0003BFE0346002B11D10E48FFF7CFFB0C4821
:1016D000FFF7CCFB3B1D3F3318460021002201F0F1
:1016E000F5FF03461846FEF7EFFD02E00648FFF758
:1016F000BDFB07F52B77BD46BDE8F08348AC01087C
:1017000014AC010850AC010858AC010880B582B097
:1017100000AF78607B681846144901F00DFE03465F
:10172000002B04D1002000210022FEF7EBFD7B6896
:1017300018460F4901F000FE0346002B04D100209B
:1017400001210022FEF7DEFD7B681846094901F001
:10175000F3FD0346002B04D1002002210022FEF7F6
:10176000D1FD18460837BD4680BD00BF70AC0108EA
:1017700078AC01087CAC010880B582B000AF78601D
:101780007B681846464901F0D7FD0346002B01D17E
:10179000002381E07B681846424901F0CDFD0346F5
:1017A000002B01D1E02377E07B6818463E4901F029
:1017B000C3FD0346002B01D11C236DE07B68184656
:1017C0003A4901F0B9FD0346002B01D1022363E041
:1017D0007B681846364901F0AFFD0346002B01D166
:1017E000E12359E07B681846324901F0A5FD034624
:1017F000002B01D1FF234FE07B6818462E4901F0F2
:101800009BFD0346002B01D1032345E07B6818466E
:101810002A4901F091FD0346002B01D1FC233BE056
:101820007B681846264901F087FD0346002B01D14D
:10183000D22331E07B681846224901F07DFD034642
:10184000002B01D11F2327E07B6818461E4901F0B9
:1018500073FD0346002B01D11D231DE07B68184654
:101860001A4901F069FD0346002B01D1E32313E07F
:101870007B681846164901F05FFD0346002B01D135
:101880001E2309E07B681846124901F055FD034606
:10189000002B01D14623FFE718460837BD4680BD1F
:1018A00084AC01088CAC010894AC01089CAC010824
:1018B000A4AC0108B0AC0108B4AC0108C0AC01088C
:1018C000C8AC0108D8AC0108E0AC0108ECAC0108D8
:1018D000F4AC010800AD010880B487B000AF7860B7
:1018E000396000237B6100233B610023FB60002300
:1018F0007B6176E07B69012202FA03F33B613B687E
:101900001A683B691340FB60FA683B699A4265D1EB
:101910007B681A687B695B00032101FA03F3DB43F0
:101920001A407B681A607B681A683B681B79194605
:101930007B695B0001FA03F31A437B681A603B681A
:101940001B79012B03D03B681B79022B2ED17B68BE
:101950009A687B695B00032101FA03F3DB431A40B9
:101960007B689A607B689A683B685B7919467B69FB
:101970005B0001FA03F31A437B689A607B685A683C
:101980007B699BB2012101FA03F3DB431A407B68B8
:101990005A607B685A683B689B7919467B699BB2A1
:1019A00001FA03F39BB21A437B685A607B68DA68DA
:1019B0007B699BB25B00032101FA03F3DB431A400E
:1019C0007B68DA607B68DA683B68DB7919467B699B
:1019D0005B0001FA03F31A437B68DA607B69013329
:1019E0007B617B690F2B85D91C37BD465DF8047B75
:1019F000704700BF80B485B000AF786013460A46D8
:101A00007A807B700023FB600023BB607A787B8840
:101A100003F007039B0002FA03F3FB607B88DB08FB
:101A20009BB21A467B88DB089BB219467B6808315B
:101A300053F821107B8803F007039B000F2000FA66
:101A400003F3DB4319407B68083243F822107B889C
:101A5000DB089BB21A467B68083253F82220FB68E9
:101A60001343BB607B88DB089BB21A467B68083255
:101A7000B96843F822101437BD465DF8047B7047FF
:101A800080B500AF114B114A126842F001021A6092
:101A90000E4B00229A600D4A0C4B1B6823F0847396
:101AA00023F480331360094B094A5A60074B074AF5
:101AB000126822F480221A60044B0022DA6000F0DF
:101AC0000BF8044B4FF000629A6080BD0038024072
:101AD0001030002400ED00E080B483B000AF00239C
:101AE0007B6000233B60354B344A126842F48032FD
:101AF0001A60324B1B6803F400333B607B68013390
:101B00007B603B68002B03D17B68B3F5A06FF0D1FD
:101B10002A4B1B6803F40033002B02D001233B60E7
:101B200001E000233B603B68012B42D1234B234A59
:101B3000126C42F080521A64214B214A126842F41E
:101B400080421A601D4B1D4A92689A601B4B1B4ACB
:101B5000926842F400429A60184B184A926842F424
:101B6000A0529A60154B174A5A60144B134A1268D8
:101B700042F080721A6000BF104B1B6803F00073C4
:101B8000002BF9D0104B40F205621A600B4B0B4A48
:101B9000926822F003029A60084B084A926842F069
:101BA00002029A6000BF054B9B6803F00C03082BF0
:101BB000F9D10C37BD465DF8047B70470038024010
:101BC0000070004008544007003C024080B483B0DD
:101BD00000AF78607B681B6823F001027B681A60A5
:101BE0007B6800221A607B6800225A607B680022B2
:101BF0009A607B680022DA607B6800221A617B6849
:101C000021225A617A68454B9A4203D1444B3D22C6
:101C10009A607EE07A68434B9A4204D1404B4FF47D
:101C200074629A6075E07A683F4B9A4204D13C4BEB
:101C30004FF474129A606CE07A683C4B9A4204D17B
:101C4000374B4FF074629A6063E07A68384B9A427F
:101C500003D1334B374ADA605BE07A68364B9A42FD
:101C600003D12F4B354ADA6053E07A68344B9A42FD
:101C700003D12B4B334ADA604BE07A68324B9A42FD
:101C800004D1274B4FF03D52DA6042E07A682F4B87
:101C90009A4203D12E4B3D229A603AE07A682D4B4E
:101CA0009A4204D12A4B4FF474629A6031E07A6808
:101CB000294B9A4204D1264B4FF474129A6028E0C3
:101CC0007A68264B9A4204D1214B4FF074629A6095
:101CD0001FE07A68224B9A4203D11D4B154ADA6005
:101CE00017E07A681F4B9A4203D1194B134ADA6006
:101CF0000FE07A681C4B9A4203D1154B114ADA6007
:101D000007E07A68194B9A4203D1114B4FF03D52CC
:101D1000DA600C37BD465DF8047B70471060024006
:101D2000006002402860024040600240586002406B
:101D3000706002403D00002088600240400F00209B
:101D4000A060024000003D20B860024010640240E4
:101D5000006402402864024040640240586402402B
:101D60007064024088640240A0640240B86402408B
:101D700080B485B000AF786039600023FB607B6879
:101D80001B68FB60FA68244B1340FB603B681A68D1
:101D90003B68DB681A433B685B691A433B689B6995
:101DA0001A433B68DB691A433B681B6A1A433B686A
:101DB0005B6A1A433B689B6A1A433B685B6B1A4336
:101DC0003B689B6B1343FA681343FB607B68FA68BC
:101DD0001A607B685B69FB60FB6823F00703FB60AC
:101DE0003B68DA6A3B681B6B1343FA681343FB607A
:101DF0007B68FA685A613B681A697B685A603B687D
:101E00005A687B689A603B689A687B68DA60143726
:101E1000BD465DF8047B70473F801CF080B483B002
:101E200000AF78600B46FB70FB78002B06D07B6818
:101E30001B6843F001027B681A6005E07B681B6841
:101E400023F001027B681A600C37BD465DF8047B05
:101E5000704700BF80B485B000AFF860B96013462A
:101E6000FB71BB6803F08003002B0FD0FB79002BC4
:101E700006D0FB685B6943F08002FB685A6105E0AD
:101E8000FB685B6923F08002FB685A61BB68802BAA
:101E900014D0FB79002B08D0FB681A68BB6803F0EC
:101EA0001E031A43FB681A6008E0FB681A68BB68E7
:101EB00003F01E03DB431A40FB681A601437BD466B
:101EC0005DF8047B704700BF80B487B000AF7860D6
:101ED00039600023FB750023FB600023BB607A6838
:101EE000224B9A4202D8224B3B6101E0214B3B61DD
:101EF0003B6823F0F02323F0C313002B0AD03B6888
:101F0000DB0A03F01E03FB607B681A68FB68134062
:101F1000BB6004E07B685B6903F08003BB603B68E7
:101F200003F00053002B03D03B695B68FB6002E0C9
:101F30003B691B68FB60FB6823F0F02323F08213EE
:101F4000FB60FA683B681340002B05D0BB68002B90
:101F500002D00123FB7501E00023FB75FB7D1846D1
:101F60001C37BD465DF8047B704700BF0F6402401C
:101F7000006002400064024080B485B000AF786029
:101F800039607A68104B9A4202D8104BFB6001E02E
:101F90000F4BFB603B6803F00053002B07D03B68FE
:101FA00023F0F02323F08213FA68D36006E03B6845
:101FB00023F0F02323F08213FA6893601437BD46B0
:101FC0005DF8047B704700BF0F6402400060024070
:101FD0000064024090B585B002AFF871B9717A71B2
:101FE0003B71F879B9797A793B7997F82040009478
:101FF000FEF7C8FB787939793A7E3B7F97F8204025
:102000000094FEF7BFFB387E397FFA79BB7997F8E9
:1020100020400094FEF7B6FB0C37BD4690BD00BFD4
:1020200080B584B000AFF860B9607A60FB68062BB9
:102030003AD801A252F823F0552000086120000888
:102040006D200008792000088520000891200008F4
:102050009D2000081648B9687A6800F037F823E038
:102060001448B9687A6800F031F81DE01248B96880
:102070007A6800F02BF817E01048B9687A6800F029
:1020800025F811E00E48B9687A6800F01FF80BE0F7
:102090000C48B9687A6800F019F805E00A48B96890
:1020A0007A6800F013F800BF1037BD4680BD00BF4E
:1020B0001CA5010810A50108E0A40108ECA4010872
:1020C000F8A4010804A50108D4A4010890B58BB0B8
:1020D00000AFF860B9607A60FB681B68FB61FB6861
:1020E0005B68BB61BB687B622AE07B683B621DE08A
:1020F0007A6ABB68D31A7B613A6A7B68D31A3B6100
:102100007B6A99B23B6A9AB2FB6898683B69FC6942
:1021100004FB03F47B69234403441B7808461146FF
:102120001A4600F07BF83B6A01333B62FB685A6851
:102130007B681A443B6A9A42DADC7B6A01337B6231
:10214000FB681A68BB681A447B6A9A42CDDC2C375C
:10215000BD4690BD80B582B000AF1B4B00221A80F7
:10216000194B00225A60184B00229A600023BB8052
:1021700017E00023FB800DE0BA8813469B00134450
:102180009B011A44FB881344104A0021D154FB8858
:102190000133FB80FB88B3F5A07FEDD9BB88013309
:1021A000BB80BB88EF2BE4D900F05EF800F0B0F8FC
:1021B00000F03EF900F010F9054B1A68024B9A60E6
:1021C0000837BD4680BD00BF88040020940400206D
:1021D0008864024080B584B000AF0346FB710023E1
:1021E000BB8114E00023FB810AE0F989BA89FB79FD
:1021F000084611461A4600F011F8FB890133FB81AD
:10220000FB89B3F5A07FF0D3BB890133BB81BB89C8
:10221000EF2BE7D91037BD4680BD00BF80B483B037
:1022200000AF13460246FA800A46BA80FB70FB886C
:10223000B3F5A07F01D30023FB80BB88EF2B01D92E
:102240000023BB80BA8813469B0013449B011A44A9
:10225000FB881344034AF978D1540C37BD465DF826
:10226000047B70479404002080B582B000AF10203A
:102270000121FEF7A3FF4FF47F433B6001233B7135
:102280000023BB710123FB7103237B713B461E4876
:102290001946FFF721FB1C4B4FF47F425A83022063
:1022A0000121FEF78BFF4FF400633B6002233B717B
:1022B00003237B710023BB710123FB713B46134851
:1022C0001946FFF709FB11480B210122FFF792FB8A
:1022D00002200121FEF772FF4FF480533B6001237F
:1022E0003B710023BB710123FB7103237B713B46D0
:1022F00006481946FFF7F0FA044B4FF480521A8350
:102300000837BD4680BD00BF0010024000040240F7
:1023100080B588B000AF01200121FEF78BFF0B23B1
:10232000BB610023BB820023BB830023FB8207F138
:1023300014032848194600F0A3F901200121FEF7F3
:102340005BFF40F66B23BB610023BB820023BB8392
:102350000023FB8207F114034FF08040194600F080
:102360008FF960233B8001237B804FF4D273BB60E5
:102370000223BB813B464FF08040194600F02AFA09
:102380004FF08040082100F011FB60233B800123C7
:102390007B804FF4A073BB600223BB813B464FF0B0
:1023A0008040194600F09CFA4FF08040082100F070
:1023B00019FB0848012100F0CDF94FF080400121C0
:1023C00000F0C8F94FF08040012100F0E3F9203718
:1023D000BD4680BD0000014080B582B000AF13480B
:1023E00010210122FFF736FD44233B7100237B714E
:1023F0000023BB710123FB713B1D184600F0E2F87E
:102400004FF080400821012200F00AFB1C233B71A1
:1024100000237B710023BB710123FB713B1D184618
:1024200000F0D0F80837BD4680BD00BF8864024088
:1024300080B590B000AF4FF480000121FEF7BEFEE2
:102440001B480021FFF7EAFC1948FFF7BFFB4FF0DC
:1024500040637B60174BBB60174BFB6040233B61C5
:1024600040F241137B610023BB614FF48063FB6149
:1024700000233B6200237B620023BB624FF44033A6
:10248000FB6200233B6301237B630023BB630023C8
:10249000FB633B1D06481946FFF76AFC07484FF4EB
:1024A0008071012200F0F0FA4037BD4680BD00BFC8
:1024B000886402401510024094040020000001408E
:1024C00080B500AF4FF08040082100F0CDFA254BD9
:1024D0001B8801339AB2234B1A80224B1B88B3F519
:1024E000037F05D91F4B00221A801F4A1D4B5A60DB
:1024F0001C4B1B88012B04D81C4B4FF480525A8371
:1025000003E01A4B4FF480521A83164B1B88232B7F
:1025100027D9144B1A8840F202239A4221D8144B2F
:10252000104A92681A60124B0E4A5268DA60114BD8
:10253000104A128892B242F0010292B21A800C4BF9
:102540000B4A126842F001021A60064B1B8803F026
:102550000103002B05D0034B5B6803F24112014BD2
:102560005A6080BD880400209404002000040240CA
:10257000886402400000014080B500AF0D480E495C
:10258000FFF7A2FC0346002B12D00A480A49FFF7C6
:10259000F3FC0A4B094A128892B222F0010292B26D
:1025A0001A80044B00221A60054B4FF47F425A8375
:1025B00080BD00BF88640240008800200000014008
:1025C0000010024080B485B000AF78600023FB7338
:1025D0000023BB730F237B737B68DB78002B37D022
:1025E000254BDB68DB4303F4E0631B0AFB73FB7BD7
:1025F000C3F10403BB737A7BFB7B42FA03F37B7367
:102600007B685B781A46BB7B02FA03F3FB737B683B
:102610009A787B7B1340DAB2FB7B1343FB73FB7B23
:102620001B01FB73154A7B681B781344FA7B83F804
:102630000023124B7A6812785209D2B2796809786D
:1026400001F01F01012000FA01F143F822100EE011
:102650000A4B7A6812785209D2B27968097801F087
:102660001F01012000FA01F1203243F82210143733
:10267000BD465DF8047B704700ED00E000E100E03E
:1026800080B485B000AF786039600023FB817B683F
:102690001B88FB817A68284B9A4213D07A68274BB3
:1026A0009A420FD07B68B3F1804F0BD07A68244BED
:1026B0009A4207D07A68234B9A4203D07A68224B19
:1026C0009A4208D1FB8923F07003FB813B685A884A
:1026D000FB891343FB817A681C4B9A420CD07A68C1
:1026E0001B4B9A4208D0FB8923F44073FB813B6863
:1026F0001A89FB891343FB817B68FA891A803B683E
:102700005A687B68DA623B681A887B681A857A683F
:10271000094B9A4203D07A68084B9A4204D13B682D
:102720009B7A1A467B681A867B6801229A82143744
:10273000BD465DF8047B7047000001400004014085
:102740000004004000080040000C00400010004061
:102750000014004080B483B000AF78600B46FB707B
:10276000FB78002B08D07B681B889BB243F080036A
:102770009AB27B681A8007E07B681B889BB223F0C3
:1027800080039AB27B681A800C37BD465DF8047BE3
:10279000704700BF80B483B000AF78600B46FB7019
:1027A000FB78002B08D07B681B889BB243F00103A9
:1027B0009AB27B681A8007E07B681B889BB223F083
:1027C00001039AB27B681A800C37BD465DF8047B22
:1027D000704700BF80B485B000AF786039600023D7
:1027E0007B810023FB810023BB817B681B8C9BB218
:1027F00023F480739AB27B681A847B681B8CFB81FC
:102800007B689B88BB817B689B8B7B817B8923F06A
:1028100070037B817B8923F003037B813B681A88EB
:102820007B8913437B81FB8923F40073FB813B6825
:102830009B891B029AB2FB891343FB813B685B882F
:102840001B029AB2FB891343FB817A68224B9A429E
:1028500003D07A68214B9A422BD1FB8923F4006381
:10286000FB813B68DB891B029AB2FB891343FB8126
:10287000FB8923F48063FB813B689B881B029AB22F
:10288000FB891343FB81BB8923F48053BB81BB8944
:1028900023F40053BB813B681B8A1B019AB2BB899E
:1028A0001343BB813B685B8A1B019AB2BB8913430C
:1028B000BB817B68BA899A807B687A899A833B68F6
:1028C0009A687B68DA637B68FA891A841437BD4694
:1028D0005DF8047B704700BF000001400004014028
:1028E00080B485B000AF786039600023BB810023DD
:1028F0007B810023FB817B681B8C9BB223F480537C
:102900009AB27B681A847B681B8C7B817B689B886E
:10291000FB817B689B8BBB81BB8923F4E043BB813C
:10292000BB8923F44073BB813B681B881B029AB2AE
:10293000BB891343BB817B8923F400537B813B68B4
:102940009B891B039AB27B8913437B813B685B881D
:102950001B039AB27B8913437B817A68114B9A429D
:1029600003D07A68104B9A420AD1FB8923F4804342
:10297000FB813B681B8A9B019AB2FB891343FB8155
:102980007B68FA899A807B68BA899A833B689A68DF
:102990007B681A647B687A891A841437BD465DF8AF
:1029A000047B7047000001400004014080B485B002
:1029B00000AF78600B467B800023FB817B689B8B9C
:1029C000FB81FB8923F00803FB81FA897B88134391
:1029D000FB817B68FA899A831437BD465DF8047BD6
:1029E000704700BF80B485B000AF78600B467B8035
:1029F0000023FB817B689B8BFB81FB8923F40063B5
:102A0000FB817B881B029AB2FB891343FB817B68A5
:102A1000FA899A831437BD465DF8047B704700BF7E
:102A200080B483B000AF786013460A467A807B702A
:102A30007B78002B08D07B689B899AB27B881343F4
:102A40009AB27B689A8109E07B689B899AB27B88FD
:102A5000DB439BB213409AB27B689A810C37BD4628
:102A60005DF8047B704700BF80B483B000AF78602E
:102A70000B467B807B88DB439AB27B681A820C37DB
:102A8000BD465DF8047B704780B483B000AF7860CA
:102A900013460A467A807B707B78002B08D07B68CF
:102AA0009B899AB27B8813439AB27B689A8109E02A
:102AB0007B689B899AB27B88DB439BB213409AB2B6
:102AC0007B689A810C37BD465DF8047B704700BF78
:102AD00081F0004102E000BF83F0004330B54FEACF
:102AE00041044FEA430594EA050F08BF90EA020F3C
:102AF0001FBF54EA000C55EA020C7FEA645C7FEACF
:102B0000655C00F0E2804FEA5454D4EB5555B8BFF1
:102B10006D420CDD2C4480EA020281EA030382EA62
:102B2000000083EA010180EA020281EA0303362DF4
:102B300088BF30BD11F0004F4FEA01314FF4801CC7
:102B40004CEA113102D0404261EB410113F0004FD9
:102B50004FEA03334CEA133302D0524263EB430390
:102B600094EA050F00F0A780A4F10104D5F1200E2E
:102B70000DDB02FA0EFC22FA05F2801841F1000189
:102B800003FA0EF2801843FA05F359410EE0A5F15D
:102B900020050EF1200E012A03FA0EFC28BF4CF08E
:102BA000020C43FA05F3C01851EBE37101F0004544
:102BB00007D54FF0000EDCF1000C7EEB00006EEB51
:102BC0000101B1F5801F1BD3B1F5001F0CD34908DB
:102BD0005FEA30004FEA3C0C04F101044FEA445232
:102BE00012F5800F80F09A80BCF1004F08BF5FEAB9
:102BF000500C50F1000041EB045141EA050130BD99
:102C00005FEA4C0C404141EB010111F4801FA4F13B
:102C10000104E9D191F0000F04BF01460020B1FA90
:102C200081F308BF2033A3F10B03B3F120020CDAC8
:102C30000C3208DD02F1140CC2F10C0201FA0CF0A6
:102C400021FA02F10CE002F11402D8BFC2F1200C0B
:102C500001FA02F120FA0CFCDCBF41EA0C019040C1
:102C6000E41AA2BF01EB0451294330BD6FEA04040A
:102C70001F3C1CDA0C340EDC04F11404C4F12002F5
:102C800020FA04F001FA02F340EA030021FA04F307
:102C900045EA030130BDC4F10C04C4F1200220FA5E
:102CA00002F001FA04F340EA0300294630BD21FA9C
:102CB00004F0294630BD94F0000F83F4801306BF62
:102CC00081F480110134013D4EE77FEA645C18BF56
:102CD0007FEA655C29D094EA050F08BF90EA020FED
:102CE00005D054EA000C04BF1946104630BD91EAE5
:102CF000030F1EBF0021002030BD5FEA545C05D1E8
:102D00004000494128BF41F0004130BD14F5800426
:102D10003CBF01F5801130BD01F0004545F0FE419A
:102D200041F470014FF0000030BD7FEA645C1ABFCF
:102D3000194610467FEA655C1CBF0B46024650EA06
:102D4000013406BF52EA033591EA030F41F4002132
:102D500030BD00BF90F0000F04BF0021704730B5B8
:102D60004FF4806404F132044FF000054FF000018D
:102D700050E700BF90F0000F04BF0021704730B54E
:102D80004FF4806404F1320410F0004548BF404223
:102D90004FF000013EE700BF42004FEAE2014FEA78
:102DA00031014FEA02701FBF12F07F4393F07F4F53
:102DB00081F06051704792F0000F14BF93F07F4F85
:102DC000704730B54FF4607401F0004521F00041C8
:102DD00020E700BF50EA010208BF704730B54FF04E
:102DE00000050AE050EA010208BF704730B511F053
:102DF000004502D5404261EB41014FF4806404F18B
:102E000032045FEA915C3FF4DCAE4FF003025FEA0C
:102E1000DC0C18BF03325FEADC0C18BF033202EB94
:102E2000DC02C2F1200300FA03FC20FA02F001FAEE
:102E300003FE40EA0E0021FA02F11444C1E600BF8D
:102E400070B54FF0FF0C4CF4E06C1CEA11541DBF40
:102E50001CEA135594EA0C0F95EA0C0F00F0DEF80B
:102E60002C4481EA030621EA4C5123EA4C5350EAF0
:102E7000013518BF52EA033541F4801143F4801341
:102E800038D0A0FB02CE4FF00005E1FB02E506F0D2
:102E90000042E0FB03E54FF00006E1FB03569CF027
:102EA000000F18BF4EF0010EA4F1FF04B6F5007F2D
:102EB00064F5407404D25FEA4E0E6D4146EB06069F
:102EC00042EAC62141EA55514FEAC52040EA5E5028
:102ED0004FEACE2EB4F1FD0C88BFBCF5E06F1ED8D2
:102EE000BEF1004F08BF5FEA500E50F1000041EB09
:102EF000045170BD06F0004646EA010140EA0200B6
:102F000081EA0301B4EB5C04C2BFD4EB0C0541EAD7
:102F1000045170BD41F480114FF0000E013C00F3EC
:102F2000AB8014F1360FDEBF002001F0004170BD10
:102F3000C4F10004203C35DA0C341BDC04F1140429
:102F4000C4F1200500FA05F320FA04F001FA05F2B5
:102F500040EA020001F0004221F0004110EBD37082
:102F600021FA04F642EB06015EEA430E08BF20EAAE
:102F7000D37070BDC4F10C04C4F1200500FA04F351
:102F800020FA05F001FA04F240EA020001F00041E3
:102F900010EBD37041F100015EEA430E08BF20EA56
:102FA000D37070BDC4F1200500FA05F24EEA020E9E
:102FB00020FA04F301FA05F243EA020321FA04F0CD
:102FC00001F0004121FA04F220EA020000EBD37084
:102FD0005EEA430E08BF20EAD37070BD94F0000F84
:102FE0000FD101F00046400041EB010111F4801FB8
:102FF00008BF013CF7D041EA060195F0000F18BF69
:10300000704703F00046520043EB030313F4801FA4
:1030100008BF013DF7D043EA0603704794EA0C0F5E
:103020000CEA135518BF95EA0C0F0CD050EA410674
:1030300018BF52EA4306D1D181EA030101F00041F1
:103040004FF0000070BD50EA410606BF1046194619
:1030500052EA430619D094EA0C0F02D150EA013625
:1030600013D195EA0C0F05D152EA03361CBF104666
:1030700019460AD181EA030101F0004141F0FE4105
:1030800041F470014FF0000070BD41F0FE4141F489
:10309000780170BD70B54FF0FF0C4CF4E06C1CEA89
:1030A00011541DBF1CEA135594EA0C0F95EA0C0F3E
:1030B00000F0A7F8A4EB050481EA030E52EA0335F9
:1030C0004FEA013100F088804FEA03334FF080551A
:1030D00045EA131343EA12634FEA022245EA111547
:1030E00045EA10654FEA00260EF000419D4208BFF8
:1030F000964244F1FD0404F5407402D25B084FEAA5
:103100003202B61A65EB03055B084FEA32024FF450
:1031100080104FF4002CB6EB020E75EB030E22BFAD
:10312000B61A754640EA0C005B084FEA3202B6EB6D
:10313000020E75EB030E22BFB61A754640EA5C001C
:103140005B084FEA3202B6EB020E75EB030E22BFAC
:10315000B61A754640EA9C005B084FEA3202B6EBAD
:10316000020E75EB030E22BFB61A754640EADC006C
:1031700055EA060E18D04FEA051545EA16754FEACE
:1031800006164FEAC30343EA52734FEAC2025FEAEC
:103190001C1CC0D111F4801F0BD141EA00014FF07B
:1031A00000004FF0004CB6E711F4801F04BF01434C
:1031B0000020B4F1FD0C88BFBCF5E06F3FF6AFAE68
:1031C000B5EB030C04BFB6EB020C5FEA500C50F1F8
:1031D000000041EB045170BD0EF0004E4EEA11317B
:1031E00014EB5C04C2BFD4EB0C0541EA045170BD82
:1031F00041F480114FF0000E013C90E645EA060EC6
:103200008DE60CEA135594EA0C0F08BF95EA0C0FF3
:103210003FF43BAF94EA0C0F0AD150EA01347FF43B
:1032200034AF95EA0C0F7FF425AF104619462CE712
:1032300095EA0C0F06D152EA03353FF4FDAE104675
:10324000194622E750EA410618BF52EA43067FF4C6
:10325000C5AE50EA41047FF40DAF52EA43057FF456
:10326000EBAE12E74A0011D212F5001211D20DD5C1
:103270006FF47873B3EB62520ED44FEAC12343F07C
:10328000004343EA505323FA02F070474FF0000026
:10329000704750EA013002D14FF0FF3070474FF0D5
:1032A00000007047F0B4840743D0541E002A3ED07B
:1032B000CDB2034603E0621E002C38D0144603F85A
:1032C000015B9A07F7D1032C2AD9CDB245EA05252F
:1032D0000F2C45EA054515D9A4F110073F0903F164
:1032E000100606EB07161A46156055609560D56006
:1032F0001032B242F8D104F00F040137032C03EB73
:1033000007130DD91E462246043A032A46F8045BE9
:10331000FAD8221F22F003020432134404F00304FB
:103320002CB1C9B21C4403F8011BA342FBD1F0BC71
:10333000704714460346C6E740EA010C1CF0070F2D
:1033400023D1BDF1100DCDE90245CDE900676FF045
:1033500000064FF0000700BFF0E80223F1E8024545
:10336000A24282FA46FCA7FA86FC08BFBCF1000F15
:1033700040F0D780AB4283FA46FCA7FA86FC08BF30
:10338000BCF1000F40F0CA80E6E710F0030C21D03A
:1033900020F0030050F8042B5FEACC7C08D00FD259
:1033A00011F801CB5FFA92F3B3EB0C0C10D17BB1A7
:1033B00011F801CB5FFAA2F3B3EB0C0C08D13BB1CF
:1033C00011F801CB5FFAB2F3B3EB0C0C00D10BB9DF
:1033D00060467047BDF1100DCDE90245CDE90067AB
:1033E0006FF000064FF0000711F0030C2DD110F024
:1033F000040F0DD050F8042B51F8044BA24282FA6E
:1034000046FCA7FA86FC08BFBCF1000F40F089809B
:1034100011F0040F9FD051F8045B00BFF0E80223C5
:10342000AA4282FA46FCA7FA86FC08BFBCF1000F4C
:1034300071D1F1E80245A34283FA46FCA7FA86FC63
:1034400008BFBCF1000F63D1E8E721F00301BCF134
:10345000020F1ED03BDA51F8045B00BF50F8043B6A
:103460004FEA152583FA46FCA7FA86FCB7EB0C2F2A
:1034700003EA162208BFAA424DD151F8045BBCF101
:10348000000F82EA03034FEA056208BF93423CD172
:10349000E4E751F8045B00BF50F8043B4FEA1545E0
:1034A00083FA46FCA7FA86FCB7EB0C4F03EA1642F8
:1034B00008BFAA422FD151F8045BBCF1000F82EA89
:1034C00003034FEA054208BF93421ED1E4E751F8D7
:1034D000045B00BF50F8043B4FEA156583FA46FCD5
:1034E000A7FA86FCB7EB0C6F03EA166208BFAA4284
:1034F00011D151F8045BBCF1000F82EA03034FEADB
:10350000052208BF934200D1E4E719BA12BA0AE0D3
:1035100019BA22BA07E011BA2ABA04E019BA2ABACB
:1035200001E011BA22BA9CFA8CF0DDE90067DDE90E
:1035300002451DF1100D38B1B0FA80F0C0F118004D
:1035400021FA00F122FA00F20120914298BF804155
:10355000704700BF40EA01039B0770B42AD1032AD9
:1035600028D90C460346214654F8045BA5F10136E0
:1035700026EA050616F0803F05D1043A032A43F8EF
:10358000045B2146EFD89AB10C781C70013A0133E4
:103590003CB16AB111F8014F03F8014B013A002C1C
:1035A000F7D12AB11A44002103F8011B9342FBD141
:1035B00070BC70470346E6E72DE9F00F424C82B03D
:1035C000D4F800C001900E4600E02646344614F8B8
:1035D000015B0CEB0500407800F0080000F0FF0AEA
:1035E0000028F2D12D2D5BD02B2D04BF7578B41C93
:1035F00033F010003CD09946BAF1000F0CBF6FF0C9
:10360000004B4FF0004BBBFBF9F8002709FB18BB40
:1036100038460CE0303DAB4219DD7E1C05D04045FC
:1036200023D820D009FB0050012714F8015B0CEBD4
:103630000506767816F0040FECD116F0030606D0D6
:10364000012E14BF57263726AD1BAB42E5DC7B1C91
:1036500015D0BAF1000F21D10AB1EFB9116002B053
:10366000BDE8F00F70475D45DCDD4FF0FF37DCE76C
:10367000302D1AD0002BBED10A239946BCE7019900
:10368000BAF1000F4FF022030CBF6FF000404FF073
:1036900000400B60002AE2D0611EDFE74042DBE71A
:1036A000B41C75784FF0010AA2E7207800F0DF0023
:1036B000582803D0002B9ED108239CE7102365785F
:1036C0009946023498E700BF4000002030B4044C13
:1036D0000D46134601462A46206830BCFFF76CBFF2
:1036E0007004002000000000000000000000000046
:1036F000C0C0C0C0C000C0C0000000D8D8D8000002
:103700000000000000002424FC4848FC90900000C9
:103710002070A8A0F07828A870200000E4A4A8E8F1
:1037200017152527000000386C6C307ACECC7E004F
:103730000000C0C0C000000000000000002060C009
:10374000C0C0C0C0406020008040406060606040F9
:10375000C0800040E040A000000000000000000029
:103760002020F8202000000000000000000000C021
:10377000C04080000000000000E0000000000000E9
:103780000000000000C0C000000020204040404079
:10379000808000000070D8D8D8D8D8D87000000039
:1037A0003070F0B03030303000000070D818183071
:1037B00060C0F800000070D818301818D8700000E9
:1037C000001838585898FC18180000007860C0F0AD
:1037D0009818D87000000070D8C0F0D8D8D8700001
:1037E0000000F81830306060606000000070D8D8C9
:1037F00070D8D8D87000000070D8D8D87818D87091
:103800000000000000C0C00000C0C00000000000B8
:10381000C0C00000C0C0408000000830C0C03008F8
:1038200000000000000000F800F8000000000000A8
:103830008060181860800000000070D818306000A8
:103840006060000000001F0060805F409340A24065
:10385000A240A6805F0060C01F000038386C6C6C0E
:10386000FEC6C6000000F8CCCCF8CCCCCCF80000EA
:10387000003C66C0C0C0C0663C000000F8CCCCCCA8
:10388000CCCCCCF8000000F8C0C0F8C0C0C0F80034
:103890000000F8C0C0F8C0C0C0C00000003C66C056
:1038A000C0CEC6663C000000CCCCCCFCCCCCCCCC92
:1038B000000000C0C0C0C0C0C0C0C00000001818D8
:1038C00018181818D870000000CCD8D8F0F8D8CC48
:1038D000CC000000C0C0C0C0C0C0C0FC00000000E0
:1038E000E380E380F780F780D580DD80DD80C980CC
:1038F0000000000000CCCCECECDCDCCCCC00000008
:10390000386CC6C6C6C66C38000000F8CCCCCCF803
:10391000C0C0C0000000386CC6C6C6D66C3C0200F1
:1039200000F8CCCCCCF8D8CCC600000078CCC0F0E5
:103930003C0CCC78000000FC3030303030303000AF
:103940000000CCCCCCCCCCCCCC78000000C6C66C73
:103950006C6C6C383800000000C460CE606EC06AC9
:10396000C06AC07BC0318031800000000000CCCC38
:1039700078303078CCCC000000CCCC487830303077
:1039800030000000FC0C18303060C0FC000000E08B
:10399000C0C0C0C0C0C0C0C0E00080804040404047
:1039A0002020000000E06060606060606060E00017
:1039B000207050D80000000000000000000000004F
:1039C00000000000FC00C0600000000000000000DB
:1039D000000000709878D8D878000000C0C0F8CCFB
:1039E000CCCCCCF8000000000070D8C0C0D870006B
:1039F00000000C0C7CCCCCCCCC7C0000000000780F
:103A0000CCFCC0CC780000003860F0606060606082
:103A100000000000007CCCCCCCCC7C8C7800C0C0FA
:103A2000F8CCCCCCCCCC000000C000C0C0C0C0C022
:103A3000C0000000600060606060606060C000C046
:103A4000C0CCD8F0F8D8CC000000C0C0C0C0C0C006
:103A5000C0C00000000000000000FF80CCC0CCC04F
:103A6000CCC0CCC0CCC000000000000000F8CCCC22
:103A7000CCCCCC000000000078CCCCCCCC780000C2
:103A8000000000F8CCCCCCCCF8C0C00000007CCC4E
:103A9000CCCCCC7C0C0C000000F0C0C0C0C0C0007E
:103AA0000000000078CCF03CCC780000002060F0F2
:103AB00060606060300000000000CCCCCCCCCC7CDE
:103AC0000000000000D8D8D8D870700000000000B6
:103AD000000000C980DD80DD807700770063000092
:103AE000000000000000D8D87070D8D80000000096
:103AF00000C66C6C6C383830E0000000F81830609C
:103B0000C0F80000003060606060C060606030003D
:103B10008080808080808080808000C06060606065
:103B200030606060C000000000689000000000008D
:103B30000200000000000000020000000B00000076
:103B40000500000016000000060000002100000033
:103B5000050000002C0000000800000037000000F5
:103B60000700000042000000020000004D000000BD
:103B70000300000058000000030000006300000084
:103B8000030000006E000000050000007900000046
:103B90000200000084000000030000008F0000000D
:103BA000020000009A00000003000000A5000000D1
:103BB00005000000B000000004000000BB00000091
:103BC00005000000C600000005000000D100000054
:103BD00006000000DC00000005000000E700000017
:103BE00005000000F200000005000000FD000000DC
:103BF000050000000801000005000000130100009E
:103C0000020000001E010000020000002901000067
:103C10000500000034010000050000003F01000025
:103C2000050000004A0100000500000055010000E9
:103C30000A0000006001000007000000760100009B
:103C40000600000081010000070000008C01000058
:103C5000060000009701000005000000A20100001E
:103C600005000000AD01000007000000B8010000E1
:103C700006000000C301000002000000CE010000A9
:103C800005000000D901000006000000E40100006A
:103C900006000000EF01000009000000FA0100002A
:103CA0000600000010020000070000001B020000D8
:103CB000060000002602000007000000310200009C
:103CC000070000003C020000060000004702000060
:103CD0000600000052020000060000005D02000025
:103CE00007000000680200000B00000073020000E3
:103CF0000600000089020000060000009402000097
:103D0000060000009F02000003000000AA0200005D
:103D100003000000B502000003000000C002000024
:103D200005000000CB02000006000000D6020000E3
:103D300003000000E102000005000000EC020000AA
:103D400006000000F702000005000000020300006A
:103D5000060000000D03000006000000180300002C
:103D60000500000023030000060000002E030000F1
:103D700006000000390300000200000044030000B8
:103D8000030000004F030000060000005A0300007B
:103D900002000000650300000A000000700300003C
:103DA00006000000860300000600000091030000EA
:103DB000060000009C03000006000000A7030000AE
:103DC00004000000B203000006000000BD03000074
:103DD00004000000C803000006000000D303000038
:103DE00005000000DE03000009000000E9030000F8
:103DF00005000000FF030000070000000A040000A7
:103E0000050000001504000004000000200400006C
:103E1000010000002B040000040000003604000034
:103E200005000000410400000B000000207E00009F
:103E300002000000303B0008E436000800000000EB
:103E40000000000000000000000000000000000072
:103E50000000000000000000000000000000000062
:103E60000000000000000000000000000000000052
:103E70000000000000000000000000000000000042
:1063B00000000000000000000000000048484848BD
:1063C0004848484848484848482424242424242449
:1063D000242424242424484949494949494949490C
:1063E000494949494949452525292929292828284C
:1063F000494949494948494949494949494949490E
:1064000049494949494949494949492824242424B1
:1064100024240000000000000000000000242424C8
:10642000000000000000000000000000000000006C
:10643000000000000000000000000000000000005C
:10644000000000000000000000000000000000004C
:106450000000002400000000000000000000000018
:10646000000000000000000000000000000000002C
:10647000000000000000000000000000000000001C
:1064800024000000000000000000000000000000E8
:1064900000000000000000000000000000000000FC
:1064A00000000000000000000000000000000000EC
:1064B00000000000000000000000000000000000DC
:1064C00000000000000000000000000000000000CC
:1064D00000000000000000000000000000000000BC
:1064E00000000000000000000000000000000000AC
:1064F000000000000000000000000000484848487C
:1065000048484848484848484844242424242424E7
:1065100024242424242448484849494949494949CC
:106520004949494949494949494949494949282421
:106530002448492828284949494949494949494954
:106540004949494949494949494949282424242470
:1065500024240000000000000000000000000024CF
:106560002400000000000000000000000000000007
:10657000000000000000000000000000000000001B
:10658000000000000000000000000000000000000B
:1065900000000024000000000000000000000000D7
:1065A00000000000000000000000000000000000EB
:1065B00000000000000000000000000000000000DB
:1065C00024000000000000000000000000000000A7
:1065D00000000000000000000000000000000000BB
:1065E00000000000000000000000000000000000AB
:1065F000000000000000000000000000000000009B
:10660000000000000000000000000000000000008A
:10661000000000000000000000000000000000007A
:10662000000000000000000000000000000000006A
:10663000000000000000000000000000484848483A
:106640004848484848484848484444242424242486
:106650002424242424244444444849494949496978
:10666000696D6D6D6D6D6D6D6D6D6D6D6D4D4949C6
:106670004949482828282848494949494949494910
:10668000494949494949494949494928282424242B
:1066900024240000000000000000000000000000B2
:1066A00024240000000000000000000000000000A2
:1066B00000240000000000000000000000000000B6
:1066C00000000000000000000000000000000000CA
:1066D0000000002400000000000000000000000096
:1066E00000000000000000000000000000000000AA
:1066F000000000000000000000000000000000009A
:106700002400000000000000000000000000000065
:106710000000000000000000000000000000000079
:106720000000000000000000000000000000000069
:106730000000000000000000000000000000000059
:106740000000000000000000000000000000000049
:106750000000000000000000000000000000000039
:106760000000000000000000000000000000000029
:1067700000000000000000000000000048484848F9
:106780004848484848484848484424242424242465
:1067900024242424242424242444484848484949BF
:1067A00049696D6D6D6D6D6D6D6D6D6D6D6D6D6D41
:1067B0004D494949492828284849494949494949A9
:1067C00049494949494949494949492824242424EE
:1067D0002424000000000000000000000000000071
:1067E000002424240000000000000000000000003D
:1067F0000000240000000000000000000000000075
:106800000000000000000000000000000000000088
:106810000000242400000000000000000000000030
:106820000000000000000000000000000000000068
:106830000000000000000000000000000000000058
:106840002400000000000000000000000000000024
:106850000000000000000000000000000000000038
:106860000000000000000000000000000000000028
:106870000000000000000000000000000000000018
:106880000000000000000000000000000000000008
:1068900000000000000000000000000000000000F8
:1068A00000000000000000000000000000000000E8
:1068B00000000000000000000000000048484848B8
:1068C0004848484848484848484424242424242424
:1068D00024242424242424242424444444444448B4
:1068E000494949494949496D6D6D6D6D6D6D6D6DD4
:1068F0006D6D6D6D4D494949484949494949494975
:1069000049494949494949494949492824242424AC
:10691000242400000000000000000000000000002F
:1069200000002424240000000000000000000000FB
:106930000000000000000000000000000000000057
:106940000000000000000000000000000000000047
:106950000000240000000000000000000000000013
:106960000000000000000000000000000000000027
:106970000000000000000000000000000000000017
:1069800024000000000000000000000000000000E3
:1069900000000000000000000000000000000000F7
:1069A00000000000000000000000000000000000E7
:1069B00000000000000000000000000000000000D7
:1069C00000000000000000000000000000000000C7
:1069D00000000000000000000000000000000000B7
:1069E00000000000000000000000000000000000A7
:1069F0000000000000000000000000004848484877
:106A000048484848484848484844242424242424E2
:106A10002424242424242424242424242424242436
:106A2000444444494949494949494949496D6D6D79
:106A30006D6D6D6D6D6D6D4949294949492929492A
:106A40004949494949494949494949282824242467
:106A500024240000000000000000000000000000EE
:106A600000000000242400000000000000000000DE
:106A700000000024000000000000000000000000F2
:106A80000000000000000000000000000000000006
:106A900000002400000000000000000000000000D2
:106AA00000000000000000000000000000000000E6
:106AB00000000000000000000000000000000000D6
:106AC00024000000000000000000000000000000A2
:106AD00000000000000000000000000000000000B6
:106AE00000000000000000000000000000000000A6
:106AF0000000000000000000000000000000000096
:106B00000000000000000000000000000000000085
:106B10000000000000000000000000000000000075
:106B20000000000000000000000000000000000065
:106B30000000000000000000000000004848484835
:106B400048484848484848484824242424442424A1
:106B500024242424242424242424242424242424F5
:106B60002424242424242424242424244849494952
:106B70006D6D6D6D6D6D6D6D6D4949494949494941
:106B8000494949494949494949494928242424242A
:106B900004000000000000000000000000000000F1
:106BA000000000000024240000000000000000009D
:106BB00000000000000000000000000000000000D5
:106BC00000000000000000000000000000000000C5
:106BD000000024000000240000000000000000006D
:106BE00000000000000000000000000000000000A5
:106BF0000000000000000000000000000000002471
:106C00002400000000000000000000000000000060
:106C10000000000000000000000000000000000074
:106C20000000000000000000000000000000000064
:106C30000000000000000000000000000000000054
:106C40000000000000000000000000000000000044
:106C50000000000000000000000000000000000034
:106C60000000000000000000000000000000000024
:106C700000000000000000000000000048484848F4
:106C80004848484848484848242424242444242484
:106C900024242424242424242424242424242424B4
:106CA0002424242424242424242424242428494956
:106CB0004949496D6D6D6D6D6D6D6D6D4949244925
:106CC00049494949494849494949492824242424EA
:106CD00004000000000000000000000000000000B0
:106CE000000000000000242400000000000000005C
:106CF0000000000000000000000000000000000094
:106D00000000000000000000000000000000000083
:106D1000000024000000000000000000000000004F
:106D20000000000000000000000000000000000063
:106D3000000000000000000000000000000000242F
:106D4000240000000000000000000000000000001F
:106D50000000000000000000000000000000000033
:106D60000000000000000000000000000000000023
:106D70000000000000000000000000000000000013
:106D80000000000000000000000000000000000003
:106D900000000000000000000000000000000000F3
:106DA00000000000000000000000000000000000E3
:106DB00000000000000000000000000048484848B3
:106DC0004848484848484848242424242424242463
:106DD0002424242424242424242424242424242473
:106DE0002424242424242424242424242428282857
:106DF0002828484949494D6D6D6D6D6D6D6D6D4922
:106E0000492929294949494949482428242424242D
:106E1000040000000000000000000000000000006E
:106E200000000000000000242424000000000000F6
:106E30000000000000000000000000000000000052
:106E40000000000000000000000000000000000042
:106E5000000024000000000000000000000000000E
:106E60000000000000000000000000000000000022
:106E700000000000000000000000000000000024EE
:106E800024000000000000000000000000000000DE
:106E900000000000000000000000000000000000F2
:106EA00000000000000000000000000000000000E2
:106EB000002424000000000000000000000000008A
:106EC00000000000000000000000000000000000C2
:106ED00000000000000000000000000000000000B2
:106EE00000000000000000000000000000000000A2
:106EF0000000000000000000000000004848484872
:106F00004848484848484444242424242424242429
:106F10002424242424242424242424242424242431
:106F200024242424242424242424242424482828F5
:106F30004849484949494949494D6D6D6D6D6D6DE7
:106F400049494949492848494828242824242424CF
:106F5000040000000000000000000000000000002D
:106F600000000000000000002424000000000000D9
:106F70000000000000000000000000000000000011
:106F80000000000000000000000000000000000001
:106F900000002400000000000000000000000000CD
:106FA00000000000000000000000000000000000E1
:106FB00000000000000000000000000000000024AD
:106FC000240000000000000000000000000000009D
:106FD00000000000000000000000000000000000B1
:106FE000000000000000000000000000000000247D
:106FF0002424240000000000000000000000000025
:107000000000000000000000000000000000000080
:107010000000000000000000000000000000000070
:107020000000000000000000000000000000000060
:107030000000000000000000000000004848484830
:1070400048484848444444442424242424242424F0
:1070500024242424242424442424442424242424B0
:1070600024242424242424242424242424242828D8
:107070004849492828282848494949496D6D6D6D76
:107080006D6D6D49494948282848492824242424FD
:1070900004000000000000000000000000000000EC
:1070A0000000000000000000002424000000000098
:1070B00000000000000000000000000000000000D0
:1070C00000000000000000000000000000000000C0
:1070D000000024000000000000000000000000008C
:1070E00000000000000000000000000000000000A0
:1070F000000000000000000000000000000000246C
:10710000000000000000000000000000000000007F
:10711000000000000000000000000000000000006F
:107120000000000000000000000000000000242417
:107130002424000000000000000000000000000007
:10714000000000000000000000000000000000003F
:10715000000000000000000000000000000000002F
:10716000000000000000000000000000000000001F
:1071700000000000000000000000000048484848EF
:1071800048484848444444442424242424242424AF
:10719000242424242424242424244424242424248F
:1071A0002424242424242424242424242428282893
:1071B00048494948484848494949294949494D6D3C
:1071C0006D6D6D6D6D494949282428282424242497
:1071D00004000000000000000000000000000000AB
:1071E0000000000000000000000024240000000057
:1071F000000000000000000000000000000000008F
:10720000000000000000000000000000000000007E
:10721000000024000000000000000000000000004A
:10722000000000000000000000000000000000005E
:10723000000000000000000000000000000000242A
:10724000000000000000000000000000000000003E
:10725000000000000000000000000000000000002E
:1072600000000000000000000000000000242424B2
:1072700024000000000000000000000000000000EA
:1072800000000000000000000000000000000000FE
:1072900000000000000000000000000000000000EE
:1072A00000000000000000000000000000000000DE
:1072B00000000000000000000000000048484848AE
:1072C000484848484444444424242424242424246E
:1072D000242424242424444424242424242424242E
:1072E00024242424242424242424242428484848EE
:1072F00048484848484848482828292929294949C8
:1073000049494D6D6D6D6D49494924242424242437
:107310000400000000000000000000000000000069
:1073200000000000000000000000242424000000F1
:10733000000000000000000000000000000000004D
:10734000000000000000000000000000000000003D
:10735000000000000000000000000000000000002D
:10736000000000000000000000000000000000001D
:1073700000000000000000000000000000000024E9
:1073800000000000000000000000000000000000FD
:1073900000000000000000000000000000000000ED
:1073A0000000000000000000000000002429242448
:1073B00000000000000000000000000000000000CD
:1073C00000000000000000000000000000000000BD
:1073D00000000000000000000000000000000000AD
:1073E000000000000000000000000000000000009D
:1073F000000000000000000000000000484848486D
:10740000484848484444444424242424242424242C
:1074100024242424242444442424242424242424EC
:1074200024242424242424242424242428284848CC
:1074300048484848484848484828292929292929A6
:1074400049494949496D6D6D4D49494924242424D0
:107450000400000000000000000000000000000028
:1074600000000000000000000000002424240000B0
:10747000000000000000000000000000000000000C
:1074800000000000000000000000000000000000FC
:1074900000000000000000000000000000000000EC
:1074A00000000000000000000000000000000000DC
:1074B00000000000000000000000000000000024A8
:1074C00000000000000000000000000000000000BC
:1074D00000000000000000000000000000000000AC
:1074E00000000000000000000000042429292404FA
:1074F000000000000000000000000000000000008C
:10750000000000000000000000000000000000007B
:10751000000000000000000000000000000000006B
:10752000000000000000000000000000000000005B
:10753000000000000000000000000000484848482B
:1075400048484848444444444424242424242424CB
:1075500024242424242424242424242424242424EB
:10756000242424242424242424242424284848486B
:107570004848484848484848482829292929294945
:10758000292828292949494D6D4D49492924242470
:1075900004000000000000000000000000000000E7
:1075A000000000000000000000000000242404008F
:1075B00000000000000000000000000000000000CB
:1075C00000000000000000000000000000000000BB
:1075D0000000240000000000000000000000000087
:1075E000000000000000000000000000000000009B
:1075F0000000000000000000000000000000002467
:10760000000000000000000000000000000000007A
:10761000000000000000000000000000000000006A
:1076200000000000000000000004292925240000BB
:10763000000000000000000000000000000000004A
:10764000000000000000000000000000000000003A
:10765000000000000000000000000000000000002A
:10766000000000000000000000000000000000001A
:1076700000000000000000000000000048484848EA
:10768000484848484444444444442424242424246A
:1076900024242424242424242424242424242424AA
:1076A000242424242424242424242424284848482A
:1076B0004848484848484848482829292929294904
:1076C0004929292929294949494949494929242434
:1076D00004000000000000000000000000000000A6
:1076E0000000000000000000000000000024240052
:1076F000000000000000000000000000000000008A
:107700000000000000000000000000000000000079
:107710000000240000000000000000000000000045
:107720000000000000000000000000000000000059
:107730000000000000000000000000000000002425
:107740000000000000000000000000000000000039
:107750000000000000000000000000000000000029
:10776000000000000000000024254949240000001A
:107770000000000000000000000000000000000009
:1077800000000000000000000000000000000000F9
:1077900000000000000000000000000000000000E9
:1077A00000000000000000000000000000000000D9
:1077B00000000000000000000000000048484848A9
:1077C0004848484844444444444424242424242429
:1077D0002424242424242424242424242424242469
:1077E00024242424242424242424242428484848E9
:1077F00048484848484848484828292929292929E3
:10780000292929294949292929294949494929242D
:107810002404000000000000000000000000000040
:107820000000000000000000000000000000242410
:107830000000000000000000000000000000000048
:107840000000000000000000000000000000000038
:107850000000240000000000000000000000000004
:107860000000000000000000000000000000000018
:1078700000000000000000000000000000000424E0
:1078800000000000000000000000000000000000F8
:1078900000000000000000000000000000000000E8
:1078A00000000000000000242949292400000000F5
:1078B00000000000000000000000000000000000C8
:1078C00000000000000000000000000000000000B8
:1078D00000000000000000000000000000000000A8
:1078E0000000000000000000000000000000000098
:1078F0000000000000000000000000004444444478
:1079000044444848444444444444242424242424EF
:107910002424242424242424242424242424242427
:1079200024242424242424242424242428484848A7
:107930004848484848484848482829292929294981
:107940002929292949294949492924242424242445
:1079500024240000000000000000000000000000DF
:1079600000000000000000000000000000000424EF
:1079700024000000000000000000000000000000E3
:1079800000000000000000000000000000000000F7
:1079900000002400000000000000000000000000C3
:1079A00000000000000000000000000000000000D7
:1079B000000000000000000000000000000004249F
:1079C00000000000000000000000000000000000B7
:1079D00000000000000000000000000000000000A7
:1079E00000000000000004244949240000000000B9
:1079F0000000000000000000000000000000000087
:107A00000000000000000000000000000000000076
:107A10000000000000000000000000000000000066
:107A20000000000000000000000000000000000056
:107A30000000000000000000000000004848484826
:107A400048484848484424244444442424242424C2
:107A500024242424242424242424242424242424E6
:107A6000242424242424242424242424244848486A
:107A70004848484848484848282829292929294960
:107A800049494949292949494929242424242424A4
:107A9000242424000000000000000000000000007A
:107AA00000000000000000000000000000000000D6
:107AB000240400000000000000000000000000009E
:107AC00000000000000000000000000000000000B6
:107AD0000424240000000000000000240000000036
:107AE0000000000000000000000000000000000096
:107AF000000000000000000000000000000024243E
:107B00000000000000000000000000000000000075
:107B10000000000000000000000000000000000065
:107B20000000000000244949252400000000000056
:107B30000000000000000000000000000000000045
:107B40000000000000000000000000000000000035
:107B50000000000000000000000000000000000025
:107B60000000000000000000000000000000000015
:107B700000000000000000000000000048484848E5
:107B800048484848484424242444242424242424C1
:107B900024242424242424242424242424242424A5
:107BA0002424242424242424242424242448484829
:107BB000484848484848484828282929292929293F
:107BC00029494949492949492928242424242404A4
:107BD00004000000000000000000000000000000A1
:107BE0000000000000000000000000000000000095
:107BF000242400000000000000000000000000003D
:107C00000000000000000000000000000000000074
:107C100024242400000000000000002400000000D4
:107C20000000000000000000000000000000000054
:107C300000000000000000000000000000002424FC
:107C40000000000000000000000000000000000034
:107C50000000000000000000000000000000000024
:107C60000000000024254949240000000000000015
:107C70000000000000000000000000000000000004
:107C800000000000000000000000000000000000F4
:107C900000000000000000000000000000000000E4
:107CA00000000000000000000000000000000000D4
:107CB00000000000000000000000000048484848A4
:107CC0004848484848444424242424242424242480
:107CD0002424242424242424242424242424242464
:107CE00024242424242424242424242424484848E8
:107CF00048484848484848482828292929292949DE
:107D00002949494949292949292424242424242466
:107D1000240000000000000000000000000000003F
:107D20000000000000000000000000000000000053
:107D300000242400000000000000000000000000FB
:107D40000000000000000000000000000000000033
:107D50002424240400002424000024242424242493
:107D60000000000000000000000000000000000013
:107D700000000000000000000000000000002400DF
:107D800000000000000000000000000000000000F3
:107D900000000000000000000000000000000000E3
:107DA00000000004294949240000000000000000F0
:107DB00000000000000000000000000000000000C3
:107DC00000000000000000000000000000000000B3
:107DD00000000000000000000000000000000000A3
:107DE0000000000000000000000000000000000093
:107DF0000000000000000000000000004848484863
:107E0000484848484844442424242424242424243E
:107E10002424242424242424242424242424242422
:107E200024242424242424242424242424484848A6
:107E3000484848484848484828282929292929499C
:107E4000494949494929292924242424242424242A
:107E500024240000000000000000000000000000DA
:107E60000000000000000000000000000000000012
:107E700000042400000000000000000000000000DA
:107E800000000000000000000000000000000000F2
:107E900024242424002424482424494949494928E5
:107EA0002400000424040000000000000000000082
:107EB000000000000000000000000000000024009E
:107EC00000000000000000000000000000000000B2
:107ED00000000000000000000000000000000000A2
:107EE0000000242449492400000000000000000094
:107EF0000000000000000000000000000000000082
:107F00000000000000000000000000000000000071
:107F10000000000000000000000000000000000061
:107F20000000000000000000000000000000000051
:107F30000000000000000000000000004848484821
:107F4000484848484844242424242424242424241D
:107F500024242424242424242424242424242424E1
:107F60002424242424242424242424242428484885
:107F7000484848484848484828282929292929495B
:107F80004949492949292929282424242424242405
:107F90002424240000000000000000000000000075
:107FA00000000000000000000000000000000000D1
:107FB0000000002404000000000000000000000099
:107FC0000000000000000000000000002424242421
:107FD0002424482424486D6D6D496D6D716D6D6D5F
:107FE0004948484949492424000000000000000095
:107FF0000000000000000000000000000004240059
:108000000000000000000000000000000000000070
